:100000000EC015C014C013C012C011C010C00FC064
:100010000EC00DC00CC00BC00AC009C008C011241E
:100020001FBECFE5D1E0DEBFCDBF02D094C0E8CF88
:1000300080E886BD16BCC19AB99AC09AB89AC29A8D
:10004000BA9A80E0C198982F26E02A95F1F700C06F
:100050009F5F9F3FC9F7C19A90E021E0290F981751
:1000600031F096E09A95F1F700C0922FF6CF822FEB
:100070002F3F41F780E0C19AC098982F26E02A953B
:10008000F1F700C09F5F9F3FC9F7C198C09A90E009
:1000900021E0290F981731F096E09A95F1F700C00A
:1000A000922FF6CF822F2F3F31F780E0C09AC2986F
:1000B000982F26E02A95F1F700C09F5F9F3FC9F770
:1000C000C098C29A90E021E0290F981731F096E08D
:1000D0009A95F1F700C0922FF6CF822F2F3F31F77C
:1000E00080E0C29AC098C198982F26E02A95F1F72F
:1000F00000C09F5F9F3FC9F7C29AC09AC19A90E023
:1001000021E0290F981731F096E09A95F1F700C099
:10011000922FF6CF822F2F3F21F780E0C29AC09A0C
:10012000C19A982F26E02A95F1F700C09F5F9F3F64
:10013000C9F7C298C098C19890E021E0290F98179C
:1001400031F096E09A95F1F700C0922FF6CF822F0A
:0A0150002F3F21F776CFF894FFCF80
:00000001FF
